{
  "contractName": "GnosisSafeProxyFactory",
  "abi": [
    {
      "anonymous": false,
      "inputs": [
        {
          "indexed": false,
          "name": "proxy",
          "type": "address"
        }
      ],
      "name": "ProxyCreation",
      "type": "event"
    },
    {
      "constant": false,
      "inputs": [
        {
          "name": "masterCopy",
          "type": "address"
        },
        {
          "name": "data",
          "type": "bytes"
        }
      ],
      "name": "createProxy",
      "outputs": [
        {
          "name": "proxy",
          "type": "address"
        }
      ],
      "payable": false,
      "stateMutability": "nonpayable",
      "type": "function"
    },
    {
      "constant": true,
      "inputs": [],
      "name": "proxyRuntimeCode",
      "outputs": [
        {
          "name": "",
          "type": "bytes"
        }
      ],
      "payable": false,
      "stateMutability": "pure",
      "type": "function"
    },
    {
      "constant": true,
      "inputs": [],
      "name": "proxyCreationCode",
      "outputs": [
        {
          "name": "",
          "type": "bytes"
        }
      ],
      "payable": false,
      "stateMutability": "pure",
      "type": "function"
    },
    {
      "constant": false,
      "inputs": [
        {
          "name": "_mastercopy",
          "type": "address"
        },
        {
          "name": "initializer",
          "type": "bytes"
        },
        {
          "name": "saltNonce",
          "type": "uint256"
        }
      ],
      "name": "createProxyWithNonce",
      "outputs": [
        {
          "name": "proxy",
          "type": "address"
        }
      ],
      "payable": false,
      "stateMutability": "nonpayable",
      "type": "function"
    },
    {
      "constant": false,
      "inputs": [
        {
          "name": "_mastercopy",
          "type": "address"
        },
        {
          "name": "initializer",
          "type": "bytes"
        },
        {
          "name": "saltNonce",
          "type": "uint256"
        },
        {
          "name": "callback",
          "type": "address"
        }
      ],
      "name": "createProxyWithCallback",
      "outputs": [
        {
          "name": "proxy",
          "type": "address"
        }
      ],
      "payable": false,
      "stateMutability": "nonpayable",
      "type": "function"
    },
    {
      "constant": false,
      "inputs": [
        {
          "name": "_mastercopy",
          "type": "address"
        },
        {
          "name": "initializer",
          "type": "bytes"
        },
        {
          "name": "saltNonce",
          "type": "uint256"
        }
      ],
      "name": "calculateCreateProxyWithNonceAddress",
      "outputs": [
        {
          "name": "proxy",
          "type": "address"
        }
      ],
      "payable": false,
      "stateMutability": "nonpayable",
      "type": "function"
    }
  ],
  "bytecode": "0x608060405234801561001057600080fd5b50610a9d806100206000396000f3fe608060405234801561001057600080fd5b50600436106100625760003560e01c80631688f0b9146100675780632500510e1461013957806353e5d935146101b757806361b69abd14610234578063addacc0f146102e8578063d18af54d146102f0575b600080fd5b61011d6004803603606081101561007d57600080fd5b6001600160a01b038235169190810190604081016020820135600160201b8111156100a757600080fd5b8201836020820111156100b957600080fd5b803590602001918460018302840111600160201b831117156100da57600080fd5b91908080601f01602080910402602001604051908101604052809392919081815260200183838082843760009201919091525092955050913592506103b2915050565b604080516001600160a01b039092168252519081900360200190f35b61011d6004803603606081101561014f57600080fd5b6001600160a01b038235169190810190604081016020820135600160201b81111561017957600080fd5b82018360208201111561018b57600080fd5b803590602001918460018302840111600160201b831117156101ac57600080fd5b919350915035610427565b6101bf61051b565b6040805160208082528351818301528351919283929083019185019080838360005b838110156101f95781810151838201526020016101e1565b50505050905090810190601f1680156102265780820380516001836020036101000a031916815260200191505b509250505060405180910390f35b61011d6004803603604081101561024a57600080fd5b6001600160a01b038235169190810190604081016020820135600160201b81111561027457600080fd5b82018360208201111561028657600080fd5b803590602001918460018302840111600160201b831117156102a757600080fd5b91908080601f016020809104026020016040519081016040528093929190818152602001838380828437600092019190915250929550610545945050505050565b6101bf6105e9565b61011d6004803603608081101561030657600080fd5b6001600160a01b038235169190810190604081016020820135600160201b81111561033057600080fd5b82018360208201111561034257600080fd5b803590602001918460018302840111600160201b8311171561036357600080fd5b91908080601f01602080910402602001604051908101604052809392919081815260200183838082843760009201919091525092955050823593505050602001356001600160a01b03166105fb565b60006103bf84848461073d565b8351909150156103e45760008060008551602087016000865af114156103e457600080fd5b604080516001600160a01b038316815290517fa38789425dbeee0239e16ff2d2567e31720127fbc6430758c1a4efc6aef29f809181900360200190a19392505050565b600061046b8585858080601f01602080910402602001604051908101604052809392919081815260200183838082843760009201919091525087925061073d915050565b604080516001600160a01b03831660601b602080830191909152825180830360140181526034830193849052600160e51b62461bcd0290935260388201818152835160588401528351949550929383926078019185019080838360005b838110156104e05781810151838201526020016104c8565b50505050905090810190601f16801561050d5780820380516001836020036101000a031916815260200191505b509250505060405180910390fd5b60606040518060200161052d90610880565b601f1982820381018352601f90910116604052905090565b60008260405161055490610880565b6001600160a01b03909116815260405190819003602001906000f080158015610581573d6000803e3d6000fd5b508251909150156105a75760008060008451602086016000865af114156105a757600080fd5b604080516001600160a01b038316815290517fa38789425dbeee0239e16ff2d2567e31720127fbc6430758c1a4efc6aef29f809181900360200190a192915050565b60606040518060200161052d9061088d565b6040805160208082018590526001600160a01b03841660601b82840152825160348184030181526054909201909252805191012060009061063d8686836103b2565b91506001600160a01b0383161561073457604051600160e31b6303ca56a30281526001600160a01b038381166004830190815288821660248401526064830187905260806044840190815288516084850152885192871693631e52b5189387938c938c938c9360a490910190602086019080838360005b838110156106cc5781810151838201526020016106b4565b50505050905090810190601f1680156106f95780820380516001836020036101000a031916815260200191505b5095505050505050600060405180830381600087803b15801561071b57600080fd5b505af115801561072f573d6000803e3d6000fd5b505050505b50949350505050565b600080838051906020012083604051602001808381526020018281526020019250505060405160208183030381529060405280519060200120905060606040518060200161078a90610880565b6020820181038252601f19601f82011660405250866001600160a01b03166040516020018083805190602001908083835b602083106107da5780518252601f1990920191602091820191016107bb565b51815160209384036101000a600019018019909216911617905292019384525060408051808503815293820190528251929450859350840190506000f592506001600160a01b0383166108775760408051600160e51b62461bcd02815260206004820152601360248201527f437265617465322063616c6c206661696c656400000000000000000000000000604482015290519081900360640190fd5b50509392505050565b61015e8061089a83390190565b607a806109f88339019056fe608060405234801561001057600080fd5b5060405160208061015e8339810180604052602081101561003057600080fd5b50516001600160a01b038116610091576040517f08c379a000000000000000000000000000000000000000000000000000000000815260040180806020018281038252602481526020018061013a6024913960400191505060405180910390fd5b600080546001600160a01b039092166001600160a01b0319909216919091179055607a806100c06000396000f3fe60806040526001600160a01b0360005416600160e11b63530ca437026000351415602d578060005260206000f35b3660008037600080366000845af43d6000803e806049573d6000fd5b3d6000f3fea165627a7a7230582062260c996ade2ac26f72d6c6f298224d8a22e618e2c2345776e6dcdd08e697130029496e76616c6964206d617374657220636f707920616464726573732070726f766964656460806040526001600160a01b0360005416600160e11b63530ca437026000351415602d578060005260206000f35b3660008037600080366000845af43d6000803e806049573d6000fd5b3d6000f3fea165627a7a7230582062260c996ade2ac26f72d6c6f298224d8a22e618e2c2345776e6dcdd08e697130029a165627a7a7230582037468c9ecc9d485c17c32f7553107c4d0aa6459c6f8c309f3a8f7aecf784c4940029",
  "source": "pragma solidity ^0.5.3;\nimport \"./GnosisSafeProxy.sol\";\nimport \"./IProxyCreationCallback.sol\";\n\n/// @title Proxy Factory - Allows to create new proxy contact and execute a message call to the new proxy within one transaction.\n/// @author Stefan George - <stefan@gnosis.pm>\ncontract GnosisSafeProxyFactory {\n\n    event ProxyCreation(GnosisSafeProxy proxy);\n\n    /// @dev Allows to create new proxy contact and execute a message call to the new proxy within one transaction.\n    /// @param masterCopy Address of master copy.\n    /// @param data Payload for message call sent to new proxy contract.\n    function createProxy(address masterCopy, bytes memory data)\n        public\n        returns (GnosisSafeProxy proxy)\n    {\n        proxy = new GnosisSafeProxy(masterCopy);\n        if (data.length > 0)\n            // solium-disable-next-line security/no-inline-assembly\n            assembly {\n                if eq(call(gas, proxy, 0, add(data, 0x20), mload(data), 0, 0), 0) { revert(0, 0) }\n            }\n        emit ProxyCreation(proxy);\n    }\n\n    /// @dev Allows to retrieve the runtime code of a deployed Proxy. This can be used to check that the expected Proxy was deployed.\n    function proxyRuntimeCode() public pure returns (bytes memory) {\n        return type(GnosisSafeProxy).runtimeCode;\n    }\n\n    /// @dev Allows to retrieve the creation code used for the Proxy deployment. With this it is easily possible to calculate predicted address.\n    function proxyCreationCode() public pure returns (bytes memory) {\n        return type(GnosisSafeProxy).creationCode;\n    }\n\n    /// @dev Allows to create new proxy contact using CREATE2 but it doesn't run the initializer.\n    ///      This method is only meant as an utility to be called from other methods\n    /// @param _mastercopy Address of master copy.\n    /// @param initializer Payload for message call sent to new proxy contract.\n    /// @param saltNonce Nonce that will be used to generate the salt to calculate the address of the new proxy contract.\n    function deployProxyWithNonce(address _mastercopy, bytes memory initializer, uint256 saltNonce)\n        internal\n        returns (GnosisSafeProxy proxy)\n    {\n        // If the initializer changes the proxy address should change too. Hashing the initializer data is cheaper than just concatinating it\n        bytes32 salt = keccak256(abi.encodePacked(keccak256(initializer), saltNonce));\n        bytes memory deploymentData = abi.encodePacked(type(GnosisSafeProxy).creationCode, uint256(_mastercopy));\n        // solium-disable-next-line security/no-inline-assembly\n        assembly {\n            proxy := create2(0x0, add(0x20, deploymentData), mload(deploymentData), salt)\n        }\n        require(address(proxy) != address(0), \"Create2 call failed\");\n    }\n\n    /// @dev Allows to create new proxy contact and execute a message call to the new proxy within one transaction.\n    /// @param _mastercopy Address of master copy.\n    /// @param initializer Payload for message call sent to new proxy contract.\n    /// @param saltNonce Nonce that will be used to generate the salt to calculate the address of the new proxy contract.\n    function createProxyWithNonce(address _mastercopy, bytes memory initializer, uint256 saltNonce)\n        public\n        returns (GnosisSafeProxy proxy)\n    {\n        proxy = deployProxyWithNonce(_mastercopy, initializer, saltNonce);\n        if (initializer.length > 0)\n            // solium-disable-next-line security/no-inline-assembly\n            assembly {\n                if eq(call(gas, proxy, 0, add(initializer, 0x20), mload(initializer), 0, 0), 0) { revert(0,0) }\n            }\n        emit ProxyCreation(proxy);\n    }\n\n    /// @dev Allows to create new proxy contact, execute a message call to the new proxy and call a specified callback within one transaction\n    /// @param _mastercopy Address of master copy.\n    /// @param initializer Payload for message call sent to new proxy contract.\n    /// @param saltNonce Nonce that will be used to generate the salt to calculate the address of the new proxy contract.\n    /// @param callback Callback that will be invoced after the new proxy contract has been successfully deployed and initialized.\n    function createProxyWithCallback(address _mastercopy, bytes memory initializer, uint256 saltNonce, IProxyCreationCallback callback)\n        public\n        returns (GnosisSafeProxy proxy)\n    {\n        uint256 saltNonceWithCallback = uint256(keccak256(abi.encodePacked(saltNonce, callback)));\n        proxy = createProxyWithNonce(_mastercopy, initializer, saltNonceWithCallback);\n        if (address(callback) != address(0))\n            callback.proxyCreated(proxy, _mastercopy, initializer, saltNonce);\n    }\n\n    /// @dev Allows to get the address for a new proxy contact created via `createProxyWithNonce`\n    ///      This method is only meant for address calculation purpose when you use an initializer that would revert,\n    ///      therefore the response is returned with a revert. When calling this method set `from` to the address of the proxy factory.\n    /// @param _mastercopy Address of master copy.\n    /// @param initializer Payload for message call sent to new proxy contract.\n    /// @param saltNonce Nonce that will be used to generate the salt to calculate the address of the new proxy contract.\n    function calculateCreateProxyWithNonceAddress(address _mastercopy, bytes calldata initializer, uint256 saltNonce)\n        external\n        returns (GnosisSafeProxy proxy)\n    {\n        proxy = deployProxyWithNonce(_mastercopy, initializer, saltNonce);\n        revert(string(abi.encodePacked(proxy)));\n    }\n\n}\n",
  "sourcePath": "@gnosis.pm/safe-contracts/contracts/proxies/GnosisSafeProxyFactory.sol",
  "compiler": {
    "name": "solc",
    "version": "0.5.6+commit.b259423e.Emscripten.clang"
  },
  "schemaVersion": "3.2.3",
  "updatedAt": "2020-08-31T13:50:22.338Z",
  "networkType": "ethereum",
  "devdoc": {
    "author": "Stefan George - <stefan@gnosis.pm>",
    "methods": {
      "calculateCreateProxyWithNonceAddress(address,bytes,uint256)": {
        "details": "Allows to get the address for a new proxy contact created via `createProxyWithNonce`      This method is only meant for address calculation purpose when you use an initializer that would revert,      therefore the response is returned with a revert. When calling this method set `from` to the address of the proxy factory.",
        "params": {
          "_mastercopy": "Address of master copy.",
          "initializer": "Payload for message call sent to new proxy contract.",
          "saltNonce": "Nonce that will be used to generate the salt to calculate the address of the new proxy contract."
        }
      },
      "createProxy(address,bytes)": {
        "details": "Allows to create new proxy contact and execute a message call to the new proxy within one transaction.",
        "params": {
          "data": "Payload for message call sent to new proxy contract.",
          "masterCopy": "Address of master copy."
        }
      },
      "createProxyWithCallback(address,bytes,uint256,address)": {
        "details": "Allows to create new proxy contact, execute a message call to the new proxy and call a specified callback within one transaction",
        "params": {
          "_mastercopy": "Address of master copy.",
          "callback": "Callback that will be invoced after the new proxy contract has been successfully deployed and initialized.",
          "initializer": "Payload for message call sent to new proxy contract.",
          "saltNonce": "Nonce that will be used to generate the salt to calculate the address of the new proxy contract."
        }
      },
      "createProxyWithNonce(address,bytes,uint256)": {
        "details": "Allows to create new proxy contact and execute a message call to the new proxy within one transaction.",
        "params": {
          "_mastercopy": "Address of master copy.",
          "initializer": "Payload for message call sent to new proxy contract.",
          "saltNonce": "Nonce that will be used to generate the salt to calculate the address of the new proxy contract."
        }
      },
      "proxyCreationCode()": {
        "details": "Allows to retrieve the creation code used for the Proxy deployment. With this it is easily possible to calculate predicted address."
      },
      "proxyRuntimeCode()": {
        "details": "Allows to retrieve the runtime code of a deployed Proxy. This can be used to check that the expected Proxy was deployed."
      }
    },
    "title": "Proxy Factory - Allows to create new proxy contact and execute a message call to the new proxy within one transaction."
  },
  "userdoc": {
    "methods": {}
  }
}